{
  "contractName": "Inventory",
  "abi": [
    {
      "anonymous": false,
      "inputs": [
        {
          "indexed": false,
          "internalType": "bytes32",
          "name": "txnId",
          "type": "bytes32"
        },
        {
          "indexed": false,
          "internalType": "uint256",
          "name": "receivedTimestamp",
          "type": "uint256"
        },
        {
          "indexed": false,
          "internalType": "address",
          "name": "receiver",
          "type": "address"
        },
        {
          "indexed": false,
          "internalType": "uint256",
          "name": "statusCode",
          "type": "uint256"
        }
      ],
      "name": "AckTxn",
      "type": "event"
    },
    {
      "anonymous": false,
      "inputs": [
        {
          "indexed": false,
          "internalType": "bytes32",
          "name": "txnId",
          "type": "bytes32"
        },
        {
          "indexed": false,
          "internalType": "uint256",
          "name": "receivedTimestamp",
          "type": "uint256"
        },
        {
          "indexed": false,
          "internalType": "address",
          "name": "receiver",
          "type": "address"
        },
        {
          "indexed": false,
          "internalType": "uint256",
          "name": "statusCode",
          "type": "uint256"
        }
      ],
      "name": "errorAckTxn",
      "type": "event"
    },
    {
      "anonymous": false,
      "inputs": [
        {
          "indexed": false,
          "internalType": "bytes32",
          "name": "txnId",
          "type": "bytes32"
        },
        {
          "indexed": false,
          "internalType": "address",
          "name": "initiator",
          "type": "address"
        },
        {
          "indexed": true,
          "internalType": "string",
          "name": "fromEntityIndex",
          "type": "string"
        },
        {
          "indexed": false,
          "internalType": "string",
          "name": "fromEntity",
          "type": "string"
        },
        {
          "indexed": false,
          "internalType": "uint256",
          "name": "fromEntityId",
          "type": "uint256"
        },
        {
          "indexed": false,
          "internalType": "string",
          "name": "toEntity",
          "type": "string"
        },
        {
          "indexed": false,
          "internalType": "uint256",
          "name": "toEntityId",
          "type": "uint256"
        },
        {
          "indexed": true,
          "internalType": "string",
          "name": "entityLevel",
          "type": "string"
        },
        {
          "indexed": false,
          "internalType": "uint256",
          "name": "sentTimestamp",
          "type": "uint256"
        },
        {
          "indexed": false,
          "internalType": "uint256",
          "name": "receivedTimestamp",
          "type": "uint256"
        },
        {
          "indexed": false,
          "internalType": "uint256[]",
          "name": "resources",
          "type": "uint256[]"
        },
        {
          "indexed": false,
          "internalType": "uint256",
          "name": "statusCode",
          "type": "uint256"
        }
      ],
      "name": "newTxn",
      "type": "event"
    },
    {
      "inputs": [
        {
          "internalType": "bytes32",
          "name": "",
          "type": "bytes32"
        }
      ],
      "name": "resourceTxns",
      "outputs": [
        {
          "internalType": "bytes32",
          "name": "id",
          "type": "bytes32"
        },
        {
          "internalType": "address",
          "name": "initiator",
          "type": "address"
        },
        {
          "internalType": "address",
          "name": "receiver",
          "type": "address"
        },
        {
          "internalType": "string",
          "name": "fromEntity",
          "type": "string"
        },
        {
          "internalType": "string",
          "name": "toEntity",
          "type": "string"
        },
        {
          "internalType": "string",
          "name": "entityLevel",
          "type": "string"
        },
        {
          "internalType": "uint256",
          "name": "sentTimestamp",
          "type": "uint256"
        },
        {
          "internalType": "uint256",
          "name": "receivedTimestamp",
          "type": "uint256"
        },
        {
          "internalType": "bool",
          "name": "created",
          "type": "bool"
        }
      ],
      "stateMutability": "view",
      "type": "function",
      "constant": true
    },
    {
      "inputs": [
        {
          "internalType": "bytes32",
          "name": "_token",
          "type": "bytes32"
        },
        {
          "internalType": "string",
          "name": "_fromEntity",
          "type": "string"
        },
        {
          "internalType": "uint256",
          "name": "_fromEntityId",
          "type": "uint256"
        },
        {
          "internalType": "string",
          "name": "_toEntity",
          "type": "string"
        },
        {
          "internalType": "uint256",
          "name": "_toEntityId",
          "type": "uint256"
        },
        {
          "internalType": "string",
          "name": "_level",
          "type": "string"
        },
        {
          "internalType": "uint256",
          "name": "_sentTimestamp",
          "type": "uint256"
        },
        {
          "internalType": "uint256",
          "name": "_receivedTimestamp",
          "type": "uint256"
        },
        {
          "internalType": "uint256[]",
          "name": "_resourceQuantities",
          "type": "uint256[]"
        },
        {
          "internalType": "address",
          "name": "_credManagerAddress",
          "type": "address"
        },
        {
          "internalType": "bool",
          "name": "_similar",
          "type": "bool"
        }
      ],
      "name": "sendTxn",
      "outputs": [],
      "stateMutability": "nonpayable",
      "type": "function"
    },
    {
      "inputs": [
        {
          "internalType": "bytes32",
          "name": "_txnId",
          "type": "bytes32"
        },
        {
          "internalType": "uint256",
          "name": "_recvdTimestamp",
          "type": "uint256"
        },
        {
          "internalType": "uint256",
          "name": "_entityId",
          "type": "uint256"
        },
        {
          "internalType": "string",
          "name": "_level",
          "type": "string"
        },
        {
          "internalType": "address",
          "name": "_credManagerAddress",
          "type": "address"
        }
      ],
      "name": "acknowledgeTxn",
      "outputs": [],
      "stateMutability": "nonpayable",
      "type": "function"
    },
    {
      "inputs": [
        {
          "internalType": "bytes32",
          "name": "_txnId",
          "type": "bytes32"
        }
      ],
      "name": "getTxnResources",
      "outputs": [
        {
          "internalType": "uint256[]",
          "name": "",
          "type": "uint256[]"
        }
      ],
      "stateMutability": "view",
      "type": "function",
      "constant": true
    }
  ],
  "bytecode": "0x60806040526040518060400160405280601181526020017f6964656e746966794063617073746f6e65000000000000000000000000000000815250600090805190602001906200005192919062000066565b503480156200005f57600080fd5b506200017b565b828054620000749062000116565b90600052602060002090601f016020900481019282620000985760008555620000e4565b82601f10620000b357805160ff1916838001178555620000e4565b82800160010185558215620000e4579182015b82811115620000e3578251825591602001919060010190620000c6565b5b509050620000f39190620000f7565b5090565b5b8082111562000112576000816000905550600101620000f8565b5090565b600060028204905060018216806200012f57607f821691505b602082108114156200014657620001456200014c565b5b50919050565b7f4e487b7100000000000000000000000000000000000000000000000000000000600052602260045260246000fd5b611b47806200018b6000396000f3fe608060405234801561001057600080fd5b506004361061004c5760003560e01c80631c722ffb146100515780633bb98e35146100895780636966ab40146100b9578063db6d530e146100d5575b600080fd5b61006b60048036038101906100669190610e0d565b6100f1565b604051610080999897969594939291906113f0565b60405180910390f35b6100a3600480360381019061009e9190610e0d565b610324565b6040516100b091906113ce565b60405180910390f35b6100d360048036038101906100ce9190610e36565b6103fc565b005b6100ef60048036038101906100ea9190610f86565b6108fa565b005b60016020528060005260406000206000915090508060000154908060010160009054906101000a900473ffffffffffffffffffffffffffffffffffffffff16908060020160009054906101000a900473ffffffffffffffffffffffffffffffffffffffff16908060030180546101669061192d565b80601f01602080910402602001604051908101604052809291908181526020018280546101929061192d565b80156101df5780601f106101b4576101008083540402835291602001916101df565b820191906000526020600020905b8154815290600101906020018083116101c257829003601f168201915b5050505050908060040180546101f49061192d565b80601f01602080910402602001604051908101604052809291908181526020018280546102209061192d565b801561026d5780601f106102425761010080835404028352916020019161026d565b820191906000526020600020905b81548152906001019060200180831161025057829003601f168201915b5050505050908060050180546102829061192d565b80601f01602080910402602001604051908101604052809291908181526020018280546102ae9061192d565b80156102fb5780601f106102d0576101008083540402835291602001916102fb565b820191906000526020600020905b8154815290600101906020018083116102de57829003601f168201915b5050505050908060060154908060070154908060090160009054906101000a900460ff16905089565b6060600115156001600084815260200190815260200160002060090160009054906101000a900460ff16151514610390576040517f08c379a00000000000000000000000000000000000000000000000000000000081526004016103879061172f565b60405180910390fd5b600160008381526020019081526020016000206008018054806020026020016040519081016040528092919081815260200182805480156103f057602002820191906000526020600020905b8154815260200190600101908083116103dc575b50505050509050919050565b600082905060008b5111610445576040517f08c379a000000000000000000000000000000000000000000000000000000000815260040161043c9061170f565b60405180910390fd5b60006040518061016001604052808d8c8b8b60405160200161046a9493929190611695565b6040516020818303038152906040528051906020012081526020018d81526020018c81526020018b81526020018a81526020018981526020018881526020018681526020018781526020018e815260200184151581525090506000808373ffffffffffffffffffffffffffffffffffffffff1663daa3b67b8460a001513386604001516040518463ffffffff1660e01b815260040161050b93929190611657565b60206040518083038186803b15801561052357600080fd5b505afa158015610537573d6000803e3d6000fd5b505050506040513d601f19601f8201168201806040525081019061055b9190610de4565b9050801561064c576040518060400160405280600c81526020017f446973746e2e20506f696e740000000000000000000000000000000000000000815250805190602001208a8051906020012014156106425782610120015183602001518460400151856060015186608001518760a001518860c001518961010001518a60e0015160008c61014001516040516020016105fe9a9998979695949392919061132e565b604051602081830303815290604052805190602001201461062357610193915061063d565b82610140015161063757610faa915061063c565b60c891505b5b610647565b60c891505b610652565b61019191505b60c882141561084b57604051806101400160405280846000015181526020013373ffffffffffffffffffffffffffffffffffffffff168152602001600073ffffffffffffffffffffffffffffffffffffffff16815260200184602001518152602001846060015181526020018460a0015181526020018460c00151815260200184610100015181526020018460e0015181526020016001151581525060016000856000015181526020019081526020016000206000820151816000015560208201518160010160006101000a81548173ffffffffffffffffffffffffffffffffffffffff021916908373ffffffffffffffffffffffffffffffffffffffff16021790555060408201518160020160006101000a81548173ffffffffffffffffffffffffffffffffffffffff021916908373ffffffffffffffffffffffffffffffffffffffff16021790555060608201518160030190805190602001906107b9929190610b8d565b5060808201518160040190805190602001906107d6929190610b8d565b5060a08201518160050190805190602001906107f3929190610b8d565b5060c0820151816006015560e08201518160070155610100820151816008019080519060200190610825929190610c13565b506101208201518160090160006101000a81548160ff0219169083151502179055509050505b8260a0015160405161085d9190611317565b604051809103902083602001516040516108779190611317565b60405180910390207f8686ed395c5deae649870b3dafcf26bb8e42051ba0a4e42f70b9041ea77e746e8560000151338760200151886040015189606001518a608001518b60c001518c61010001518d60e001518d6040516108e19a99989796959493929190611492565b60405180910390a3505050505050505050505050505050565b6000841161093d576040517f08c379a0000000000000000000000000000000000000000000000000000000008152600401610934906116ef565b60405180910390fd5b6001600086815260200190815260200160002060090160009054906101000a900460ff166109a9577fa028032e2f791877c3c121bc2e800ca601982d7fdd265a6d6499acfa7f39b18185853361019060405161099c9493929190611588565b60405180910390a1610b86565b6000600160008781526020019081526020016000206007015414610a07577fa028032e2f791877c3c121bc2e800ca601982d7fdd265a6d6499acfa7f39b181858533610faa6040516109fe94939291906115cd565b60405180910390a15b60008190508073ffffffffffffffffffffffffffffffffffffffff1663daa3b67b8433876040518463ffffffff1660e01b8152600401610a4993929190611657565b60206040518083038186803b158015610a6157600080fd5b505afa158015610a75573d6000803e3d6000fd5b505050506040513d601f19601f82011682018060405250810190610a999190610de4565b610ae1577fa028032e2f791877c3c121bc2e800ca601982d7fdd265a6d6499acfa7f39b181868633610fab604051610ad49493929190611612565b60405180910390a1610b84565b6000600160008881526020019081526020016000209050858160070181905550338160020160006101000a81548173ffffffffffffffffffffffffffffffffffffffff021916908373ffffffffffffffffffffffffffffffffffffffff1602179055507f198279c15db5a6a80681ccdbc3c4f4fc2a14d8caef5bfeb03a19b96a1dbddf1e87873360c8604051610b7a9493929190611543565b60405180910390a1505b505b5050505050565b828054610b999061192d565b90600052602060002090601f016020900481019282610bbb5760008555610c02565b82601f10610bd457805160ff1916838001178555610c02565b82800160010185558215610c02579182015b82811115610c01578251825591602001919060010190610be6565b5b509050610c0f9190610c60565b5090565b828054828255906000526020600020908101928215610c4f579160200282015b82811115610c4e578251825591602001919060010190610c33565b5b509050610c5c9190610c60565b5090565b5b80821115610c79576000816000905550600101610c61565b5090565b6000610c90610c8b84611774565b61174f565b90508083825260208201905082856020860282011115610caf57600080fd5b60005b85811015610cdf5781610cc58882610dcf565b845260208401935060208301925050600181019050610cb2565b5050509392505050565b6000610cfc610cf7846117a0565b61174f565b905082815260208101848484011115610d1457600080fd5b610d1f8482856118eb565b509392505050565b600081359050610d3681611ab5565b92915050565b600082601f830112610d4d57600080fd5b8135610d5d848260208601610c7d565b91505092915050565b600081359050610d7581611acc565b92915050565b600081519050610d8a81611acc565b92915050565b600081359050610d9f81611ae3565b92915050565b600082601f830112610db657600080fd5b8135610dc6848260208601610ce9565b91505092915050565b600081359050610dde81611afa565b92915050565b600060208284031215610df657600080fd5b6000610e0484828501610d7b565b91505092915050565b600060208284031215610e1f57600080fd5b6000610e2d84828501610d90565b91505092915050565b60008060008060008060008060008060006101608c8e031215610e5857600080fd5b6000610e668e828f01610d90565b9b505060208c013567ffffffffffffffff811115610e8357600080fd5b610e8f8e828f01610da5565b9a50506040610ea08e828f01610dcf565b99505060608c013567ffffffffffffffff811115610ebd57600080fd5b610ec98e828f01610da5565b9850506080610eda8e828f01610dcf565b97505060a08c013567ffffffffffffffff811115610ef757600080fd5b610f038e828f01610da5565b96505060c0610f148e828f01610dcf565b95505060e0610f258e828f01610dcf565b9450506101008c013567ffffffffffffffff811115610f4357600080fd5b610f4f8e828f01610d3c565b935050610120610f618e828f01610d27565b925050610140610f738e828f01610d66565b9150509295989b509295989b9093969950565b600080600080600060a08688031215610f9e57600080fd5b6000610fac88828901610d90565b9550506020610fbd88828901610dcf565b9450506040610fce88828901610dcf565b935050606086013567ffffffffffffffff811115610feb57600080fd5b610ff788828901610da5565b925050608061100888828901610d27565b9150509295509295909350565b600061102183836112d3565b60208301905092915050565b600061103983836112f1565b60208301905092915050565b61104e81611851565b82525050565b600061105f826117f6565b6110698185611819565b9350611074836117d1565b8060005b838110156110a557815161108c8882611015565b97506110978361180c565b925050600181019050611078565b5085935050505092915050565b60006110bd826117f6565b6110c7818561182a565b93506110d2836117d1565b8060005b838110156111035781516110ea888261102d565b97506110f58361180c565b9250506001810190506110d6565b5085935050505092915050565b61111981611863565b82525050565b61113061112b82611863565b611990565b82525050565b61113f8161186f565b82525050565b61114e816118a3565b82525050565b61115d816118b5565b82525050565b61116c816118c7565b82525050565b61117b816118d9565b82525050565b600061118c82611801565b6111968185611835565b93506111a68185602086016118fa565b6111af81611a1c565b840191505092915050565b60006111c582611801565b6111cf8185611846565b93506111df8185602086016118fa565b80840191505092915050565b600081546111f88161192d565b6112028186611846565b9450600182166000811461121d576001811461122e57611261565b60ff19831686528186019350611261565b611237856117e1565b60005b838110156112595781548189015260018201915060208101905061123a565b838801955050505b50505092915050565b6000611277601183611835565b915061128282611a3a565b602082019050919050565b600061129a601283611835565b91506112a582611a63565b602082019050919050565b60006112bd600e83611835565b91506112c882611a8c565b602082019050919050565b6112dc81611899565b82525050565b6112eb81611899565b82525050565b6112fa81611899565b82525050565b61131161130c82611899565b6119a2565b82525050565b600061132382846111ba565b915081905092915050565b600061133a828d6111ba565b9150611346828c611300565b602082019150611356828b6111ba565b9150611362828a611300565b60208201915061137282896111ba565b915061137e8288611300565b60208201915061138e8287611300565b60208201915061139e82866110b2565b91506113aa82856111eb565b91506113b6828461111f565b6001820191508190509b9a5050505050505050505050565b600060208201905081810360008301526113e88184611054565b905092915050565b600061012082019050611406600083018c611136565b611413602083018b611045565b611420604083018a611045565b81810360608301526114328189611181565b905081810360808301526114468188611181565b905081810360a083015261145a8187611181565b905061146960c08301866112e2565b61147660e08301856112e2565b611484610100830184611110565b9a9950505050505050505050565b6000610140820190506114a8600083018d611136565b6114b5602083018c611045565b81810360408301526114c7818b611181565b90506114d6606083018a6112e2565b81810360808301526114e88189611181565b90506114f760a08301886112e2565b61150460c08301876112e2565b61151160e08301866112e2565b8181036101008301526115248185611054565b90506115346101208301846112e2565b9b9a5050505050505050505050565b60006080820190506115586000830187611136565b61156560208301866112e2565b6115726040830185611045565b61157f6060830184611145565b95945050505050565b600060808201905061159d6000830187611136565b6115aa60208301866112e2565b6115b76040830185611045565b6115c46060830184611154565b95945050505050565b60006080820190506115e26000830187611136565b6115ef60208301866112e2565b6115fc6040830185611045565b6116096060830184611163565b95945050505050565b60006080820190506116276000830187611136565b61163460208301866112e2565b6116416040830185611045565b61164e6060830184611172565b95945050505050565b600060608201905081810360008301526116718186611181565b90506116806020830185611045565b61168d60408301846112e2565b949350505050565b600060808201905081810360008301526116af8187611181565b905081810360208301526116c38186611181565b905081810360408301526116d78185611181565b90506116e660608301846112e2565b95945050505050565b600060208201905081810360008301526117088161126a565b9050919050565b600060208201905081810360008301526117288161128d565b9050919050565b60006020820190508181036000830152611748816112b0565b9050919050565b600061175961176a565b9050611765828261195f565b919050565b6000604051905090565b600067ffffffffffffffff82111561178f5761178e6119ed565b5b602082029050602081019050919050565b600067ffffffffffffffff8211156117bb576117ba6119ed565b5b6117c482611a1c565b9050602081019050919050565b6000819050602082019050919050565b60008190508160005260206000209050919050565b600081519050919050565b600081519050919050565b6000602082019050919050565b600082825260208201905092915050565b600081905092915050565b600082825260208201905092915050565b600081905092915050565b600061185c82611879565b9050919050565b60008115159050919050565b6000819050919050565b600073ffffffffffffffffffffffffffffffffffffffff82169050919050565b6000819050919050565b60006118ae82611899565b9050919050565b60006118c082611899565b9050919050565b60006118d282611899565b9050919050565b60006118e482611899565b9050919050565b82818337600083830152505050565b60005b838110156119185780820151818401526020810190506118fd565b83811115611927576000848401525b50505050565b6000600282049050600182168061194557607f821691505b60208210811415611959576119586119be565b5b50919050565b61196882611a1c565b810181811067ffffffffffffffff82111715611987576119866119ed565b5b80604052505050565b600061199b826119ac565b9050919050565b6000819050919050565b60006119b782611a2d565b9050919050565b7f4e487b7100000000000000000000000000000000000000000000000000000000600052602260045260246000fd5b7f4e487b7100000000000000000000000000000000000000000000000000000000600052604160045260246000fd5b6000601f19601f8301169050919050565b60008160f81b9050919050565b7f496e76616c69642074696d657374616d70000000000000000000000000000000600082015250565b7f496e76616c69642066726f6d456e746974790000000000000000000000000000600082015250565b7f496e76616c69642074786e206964000000000000000000000000000000000000600082015250565b611abe81611851565b8114611ac957600080fd5b50565b611ad581611863565b8114611ae057600080fd5b50565b611aec8161186f565b8114611af757600080fd5b50565b611b0381611899565b8114611b0e57600080fd5b5056fea2646970667358221220707a63b234090d8d7e24694b9e2b55ffdc56a2a013d8d0158d182232493bb21964736f6c63430008030033",
  "immutableReferences": {},
  "source": "// SPDX-License-Identifier: GPL-3.0\n\npragma solidity >=0.5.0 <=0.8.4;\nimport \"./CredentialManager.sol\";\n\ncontract Inventory {\n    \n    string private secret = \"identify@capstone\";\n\n    struct resourceTransaction {\n        bytes32 id;\n        address initiator;\n        address receiver;\n        string fromEntity; \n        string toEntity; \n        string entityLevel; \n        uint sentTimestamp; \n        uint receivedTimestamp;\n        uint[] resourceQuantities; //array of quantities where index is id of the resource\n        bool created;\n    }\n\n    mapping(bytes32=>resourceTransaction) public resourceTxns;\n    \n    event newTxn(\n        bytes32 txnId,\n        address initiator,\n        string indexed fromEntityIndex, //stores keccak256 hash of the string. To filter, filter using hash(key)\n        string fromEntity,\n        uint fromEntityId,\n        string toEntity,\n        uint toEntityId,\n        string indexed entityLevel,\n        uint sentTimestamp,\n        uint receivedTimestamp,\n        uint[] resources,\n        uint statusCode\n    );\n\n    event AckTxn(\n        bytes32 txnId,\n        uint receivedTimestamp,\n        address receiver,\n        uint statusCode\n    );\n\n    event errorAckTxn (\n        bytes32 txnId,\n        uint receivedTimestamp,\n        address receiver,\n        uint statusCode\n    );\n    \n    struct TempTxn {\n        bytes32 txnId;\n        string fromEntity;\n        uint fromEntityId;\n        string toEntity;\n        uint toEntityId;\n        string level;\n        uint sentTimestamp;\n        uint[] resourceQuantities;\n        uint receivedTimestamp;\n        bytes32 token;\n        bool similar;\n    }\n    \n    function sendTxn(\n        bytes32 _token, \n        string memory _fromEntity,\n        uint _fromEntityId, \n        string memory _toEntity, \n        uint _toEntityId, \n        string memory _level,\n        uint  _sentTimestamp, \n        uint _receivedTimestamp, \n        uint[] memory _resourceQuantities, \n        address _credManagerAddress,\n        bool _similar\n    ) public {\n        \n        CredentialManager cm = CredentialManager(_credManagerAddress);\n        require(bytes(_fromEntity).length>0, \"Invalid fromEntity\");\n        \n        TempTxn memory tempTxn = TempTxn(\n            keccak256(abi.encode(_fromEntity,_toEntity,_level,_sentTimestamp)), \n            _fromEntity,\n            _fromEntityId,\n            _toEntity,\n            _toEntityId,\n            _level,\n            _sentTimestamp,\n            _resourceQuantities,\n            _receivedTimestamp,\n            _token,\n            _similar\n        );\n        \n        uint statusCode;\n        bool isAuthorized = cm.authorizeSigner(tempTxn.level, msg.sender, tempTxn.fromEntityId);\n        \n        if(isAuthorized)\n        {\n            if(keccak256(bytes(_level)) == keccak256(bytes(\"Distn. Point\"))){\n                if(keccak256(\n                abi.encodePacked(\n                    tempTxn.fromEntity, \n                    tempTxn.fromEntityId, \n                    tempTxn.toEntity,\n                    tempTxn.toEntityId,\n                    tempTxn.level,\n                    tempTxn.sentTimestamp,\n                    tempTxn.receivedTimestamp,\n                    tempTxn.resourceQuantities,\n                    secret,\n                    tempTxn.similar\n                )) != tempTxn.token)\n                    statusCode=403;\n                else if(!tempTxn.similar)\n                    statusCode=4010;\n                else\n                    statusCode=200;\n                \n            }    \n            else\n                statusCode=200;\n        }else   \n            statusCode = 401;\n        \n        if(statusCode==200)\n            resourceTxns[tempTxn.txnId] = resourceTransaction(\n                tempTxn.txnId, \n                msg.sender, \n                address(0), \n                tempTxn.fromEntity, \n                tempTxn.toEntity, \n                tempTxn.level, \n                tempTxn.sentTimestamp, \n                tempTxn.receivedTimestamp, \n                tempTxn.resourceQuantities, \n                true\n            );\n        \n        emit newTxn(\n            tempTxn.txnId, \n            msg.sender, \n            tempTxn.fromEntity, \n            tempTxn.fromEntity, \n            tempTxn.fromEntityId, \n            tempTxn.toEntity, \n            tempTxn.toEntityId, \n            tempTxn.level, \n            tempTxn.sentTimestamp, \n            tempTxn.receivedTimestamp, \n            tempTxn.resourceQuantities,\n            statusCode\n        );\n    }\n    \n    function acknowledgeTxn(\n        bytes32 _txnId, \n        uint _recvdTimestamp, \n        uint _entityId, \n        string memory _level, \n        address _credManagerAddress\n    ) public {\n        require(_recvdTimestamp>0, \"Invalid timestamp\");\n        if(!resourceTxns[_txnId].created)\n            emit errorAckTxn(_txnId, _recvdTimestamp, msg.sender,400);\n        else {\n            if(resourceTxns[_txnId].receivedTimestamp!=0) \n                emit errorAckTxn(_txnId, _recvdTimestamp, msg.sender, 4010);\n            CredentialManager cm = CredentialManager(_credManagerAddress);\n            if(!cm.authorizeSigner(_level, msg.sender, _entityId))\n                emit errorAckTxn(_txnId, _recvdTimestamp, msg.sender, 4011);\n            else\n            {\n                resourceTransaction storage txn = resourceTxns[_txnId];\n                txn.receivedTimestamp = _recvdTimestamp;\n                txn.receiver = msg.sender;\n                emit AckTxn(_txnId, _recvdTimestamp, msg.sender, 200);\n            }\n        }             \n    }\n    \n    function getTxnResources(bytes32 _txnId) public view returns(uint[] memory) {\n        require(resourceTxns[_txnId].created==true, \"Invalid txn id\");\n        return resourceTxns[_txnId].resourceQuantities;\n    }\n}",
  "sourcePath": "D:/VIT/Capstone/Identify-master/contracts/Inventory.sol",
  "compiler": {
    "name": "solc",
    "version": "0.8.3+commit.8d00100c.Emscripten.clang"
  },
  "schemaVersion": "3.4.1",
  "updatedAt": "2021-06-10T12:01:55.885Z",
  "networkType": "ethereum",
  "devdoc": {
    "kind": "dev",
    "methods": {},
    "version": 1
  },
  "userdoc": {
    "kind": "user",
    "methods": {},
    "version": 1
  }
}