{
  "contractName": "Inventory",
  "abi": [
    {
      "anonymous": false,
      "inputs": [
        {
          "indexed": false,
          "internalType": "bytes32",
          "name": "txnId",
          "type": "bytes32"
        },
        {
          "indexed": false,
          "internalType": "uint256",
          "name": "receivedTimestamp",
          "type": "uint256"
        },
        {
          "indexed": false,
          "internalType": "address",
          "name": "receiver",
          "type": "address"
        }
      ],
      "name": "AckTxn",
      "type": "event"
    },
    {
      "anonymous": false,
      "inputs": [
        {
          "indexed": false,
          "internalType": "uint256",
          "name": "statusCode",
          "type": "uint256"
        },
        {
          "indexed": false,
          "internalType": "bytes32",
          "name": "txnId",
          "type": "bytes32"
        },
        {
          "indexed": true,
          "internalType": "address",
          "name": "initiator",
          "type": "address"
        },
        {
          "indexed": true,
          "internalType": "string",
          "name": "fromEntityIndex",
          "type": "string"
        },
        {
          "indexed": false,
          "internalType": "string",
          "name": "fromEntity",
          "type": "string"
        },
        {
          "indexed": false,
          "internalType": "string",
          "name": "toEntity",
          "type": "string"
        },
        {
          "indexed": true,
          "internalType": "string",
          "name": "entityLevel",
          "type": "string"
        },
        {
          "indexed": false,
          "internalType": "uint256",
          "name": "sentTimestamp",
          "type": "uint256"
        },
        {
          "indexed": false,
          "internalType": "uint256",
          "name": "receivedTimestamp",
          "type": "uint256"
        },
        {
          "indexed": false,
          "internalType": "string",
          "name": "beneficiary",
          "type": "string"
        },
        {
          "indexed": false,
          "internalType": "uint256[]",
          "name": "resources",
          "type": "uint256[]"
        }
      ],
      "name": "newTxn",
      "type": "event"
    },
    {
      "inputs": [
        {
          "internalType": "bytes32",
          "name": "",
          "type": "bytes32"
        }
      ],
      "name": "resourceTxns",
      "outputs": [
        {
          "internalType": "bytes32",
          "name": "id",
          "type": "bytes32"
        },
        {
          "internalType": "address",
          "name": "initiator",
          "type": "address"
        },
        {
          "internalType": "address",
          "name": "receiver",
          "type": "address"
        },
        {
          "internalType": "string",
          "name": "beneficiary",
          "type": "string"
        },
        {
          "internalType": "string",
          "name": "fromEntity",
          "type": "string"
        },
        {
          "internalType": "string",
          "name": "toEntity",
          "type": "string"
        },
        {
          "internalType": "string",
          "name": "entityLevel",
          "type": "string"
        },
        {
          "internalType": "uint256",
          "name": "sentTimestamp",
          "type": "uint256"
        },
        {
          "internalType": "uint256",
          "name": "receivedTimestamp",
          "type": "uint256"
        },
        {
          "internalType": "bool",
          "name": "created",
          "type": "bool"
        }
      ],
      "stateMutability": "view",
      "type": "function",
      "constant": true
    },
    {
      "inputs": [
        {
          "internalType": "string",
          "name": "_beneficiary",
          "type": "string"
        },
        {
          "internalType": "string",
          "name": "_fromEntity",
          "type": "string"
        },
        {
          "internalType": "uint256",
          "name": "_fromEntityId",
          "type": "uint256"
        },
        {
          "internalType": "string",
          "name": "_toEntity",
          "type": "string"
        },
        {
          "internalType": "string",
          "name": "_level",
          "type": "string"
        },
        {
          "internalType": "uint256",
          "name": "_sentTimestamp",
          "type": "uint256"
        },
        {
          "internalType": "uint256",
          "name": "_receivedTimestamp",
          "type": "uint256"
        },
        {
          "internalType": "uint256[]",
          "name": "_resourceQuantities",
          "type": "uint256[]"
        },
        {
          "internalType": "address",
          "name": "_credManagerAddress",
          "type": "address"
        }
      ],
      "name": "sendTxn",
      "outputs": [
        {
          "internalType": "uint256",
          "name": "",
          "type": "uint256"
        }
      ],
      "stateMutability": "nonpayable",
      "type": "function"
    },
    {
      "inputs": [
        {
          "internalType": "bytes32",
          "name": "_txnId",
          "type": "bytes32"
        },
        {
          "internalType": "uint256",
          "name": "_recvdTimestamp",
          "type": "uint256"
        }
      ],
      "name": "acknowledgeTxn",
      "outputs": [],
      "stateMutability": "nonpayable",
      "type": "function"
    },
    {
      "inputs": [
        {
          "internalType": "bytes32",
          "name": "_txnId",
          "type": "bytes32"
        }
      ],
      "name": "getTxnResources",
      "outputs": [
        {
          "internalType": "uint256[]",
          "name": "",
          "type": "uint256[]"
        }
      ],
      "stateMutability": "view",
      "type": "function",
      "constant": true
    }
  ],
  "bytecode": "0x608060405234801561001057600080fd5b506116bd806100206000396000f3fe608060405234801561001057600080fd5b506004361061004c5760003560e01c80631c722ffb146100515780633bb98e351461008a5780638893daba146100ba57806398dfcdc3146100ea575b600080fd5b61006b60048036038101906100669190610d5c565b610106565b6040516100819a999897969594939291906110cc565b60405180910390f35b6100a4600480360381019061009f9190610d5c565b6103c7565b6040516100b191906110aa565b60405180910390f35b6100d460048036038101906100cf9190610dc1565b61049d565b6040516100e191906112b3565b60405180910390f35b61010460048036038101906100ff9190610d85565b61092b565b005b60006020528060005260406000206000915090508060000154908060010160009054906101000a900473ffffffffffffffffffffffffffffffffffffffff16908060020160009054906101000a900473ffffffffffffffffffffffffffffffffffffffff169080600301805461017b906114de565b80601f01602080910402602001604051908101604052809291908181526020018280546101a7906114de565b80156101f45780601f106101c9576101008083540402835291602001916101f4565b820191906000526020600020905b8154815290600101906020018083116101d757829003601f168201915b505050505090806004018054610209906114de565b80601f0160208091040260200160405190810160405280929190818152602001828054610235906114de565b80156102825780601f1061025757610100808354040283529160200191610282565b820191906000526020600020905b81548152906001019060200180831161026557829003601f168201915b505050505090806005018054610297906114de565b80601f01602080910402602001604051908101604052809291908181526020018280546102c3906114de565b80156103105780601f106102e557610100808354040283529160200191610310565b820191906000526020600020905b8154815290600101906020018083116102f357829003601f168201915b505050505090806006018054610325906114de565b80601f0160208091040260200160405190810160405280929190818152602001828054610351906114de565b801561039e5780601f106103735761010080835404028352916020019161039e565b820191906000526020600020905b81548152906001019060200180831161038157829003601f168201915b50505050509080600701549080600801549080600a0160009054906101000a900460ff1690508a565b606060011515600080848152602001908152602001600020600a0160009054906101000a900460ff16151514610432576040517f08c379a000000000000000000000000000000000000000000000000000000000815260040161042990611293565b60405180910390fd5b60008083815260200190815260200160002060090180548060200260200160405190810160405280929190818152602001828054801561049157602002820191906000526020600020905b81548152602001906001019080831161047d575b50505050509050919050565b6000808290506000808273ffffffffffffffffffffffffffffffffffffffff1663daa3b67b8a338e6040518463ffffffff1660e01b81526004016104e3939291906111bb565b60206040518083038186803b1580156104fb57600080fd5b505afa15801561050f573d6000803e3d6000fd5b505050506040513d601f19601f820116820180604052508101906105339190610d33565b610541576101919150610546565b60c891505b60008c511161058a576040517f08c379a000000000000000000000000000000000000000000000000000000000815260040161058190611273565b60405180910390fd5b8b8a8a8a6040516020016105a194939291906111f9565b6040516020818303038152906040528051906020012090506105c1610a66565b8181600001818152505033816020019073ffffffffffffffffffffffffffffffffffffffff16908173ffffffffffffffffffffffffffffffffffffffff16815250506040518060400160405280600c81526020017f646973747269627574696f6e0000000000000000000000000000000000000000815250805190602001208d805190602001201415610658578d81606001819052505b8c81608001819052508a8160a00181905250898160c00181905250888160e00181815250506040518060400160405280600c81526020017f646973747269627574696f6e0000000000000000000000000000000000000000815250805190602001208d8051906020012014156106d45787816101000181815250505b60018161014001901515908115158152505086816101200181905250806000808481526020019081526020016000206000820151816000015560208201518160010160006101000a81548173ffffffffffffffffffffffffffffffffffffffff021916908373ffffffffffffffffffffffffffffffffffffffff16021790555060408201518160020160006101000a81548173ffffffffffffffffffffffffffffffffffffffff021916908373ffffffffffffffffffffffffffffffffffffffff16021790555060608201518160030190805190602001906107b7929190610af1565b5060808201518160040190805190602001906107d4929190610af1565b5060a08201518160050190805190602001906107f1929190610af1565b5060c082015181600601908051906020019061080e929190610af1565b5060e082015181600701556101008201518160080155610120820151816009019080519060200190610841929190610b77565b5061014082015181600a0160006101000a81548160ff02191690831515021790555090505060008e90508160c0015160405161087d9190611093565b604051809103902082608001516040516108979190611093565b60405180910390203373ffffffffffffffffffffffffffffffffffffffff167fb5051e77b912e55fb33f6f90f65fd740daa7fa5f16b8b28d199c684c1785c73e87866000015187608001518860a001518960e001518a61010001518a8c610120015160405161090d9897969594939291906112ce565b60405180910390a46000955050505050509998505050505050505050565b600080838152602001908152602001600020600a0160009054906101000a900460ff16610981577f4e487b7100000000000000000000000000000000000000000000000000000000600052600160045260246000fd5b600081116109c4576040517f08c379a00000000000000000000000000000000000000000000000000000000081526004016109bb90611253565b60405180910390fd5b60008060008481526020019081526020016000209050818160080181905550338160020160006101000a81548173ffffffffffffffffffffffffffffffffffffffff021916908373ffffffffffffffffffffffffffffffffffffffff1602179055507fd4f400cd2e2fcb0786d5df3c869e3846b2fbddca4e4e235f75e9aff574820502838333604051610a5993929190611184565b60405180910390a1505050565b60405180610160016040528060008019168152602001600073ffffffffffffffffffffffffffffffffffffffff168152602001600073ffffffffffffffffffffffffffffffffffffffff168152602001606081526020016060815260200160608152602001606081526020016000815260200160008152602001606081526020016000151581525090565b828054610afd906114de565b90600052602060002090601f016020900481019282610b1f5760008555610b66565b82601f10610b3857805160ff1916838001178555610b66565b82800160010185558215610b66579182015b82811115610b65578251825591602001919060010190610b4a565b5b509050610b739190610bc4565b5090565b828054828255906000526020600020908101928215610bb3579160200282015b82811115610bb2578251825591602001919060010190610b97565b5b509050610bc09190610bc4565b5090565b5b80821115610bdd576000816000905550600101610bc5565b5090565b6000610bf4610bef8461138d565b611368565b90508083825260208201905082856020860282011115610c1357600080fd5b60005b85811015610c435781610c298882610d1e565b845260208401935060208301925050600181019050610c16565b5050509392505050565b6000610c60610c5b846113b9565b611368565b905082815260208101848484011115610c7857600080fd5b610c8384828561149c565b509392505050565b600081359050610c9a8161162b565b92915050565b600082601f830112610cb157600080fd5b8135610cc1848260208601610be1565b91505092915050565b600081519050610cd981611642565b92915050565b600081359050610cee81611659565b92915050565b600082601f830112610d0557600080fd5b8135610d15848260208601610c4d565b91505092915050565b600081359050610d2d81611670565b92915050565b600060208284031215610d4557600080fd5b6000610d5384828501610cca565b91505092915050565b600060208284031215610d6e57600080fd5b6000610d7c84828501610cdf565b91505092915050565b60008060408385031215610d9857600080fd5b6000610da685828601610cdf565b9250506020610db785828601610d1e565b9150509250929050565b60008060008060008060008060006101208a8c031215610de057600080fd5b60008a013567ffffffffffffffff811115610dfa57600080fd5b610e068c828d01610cf4565b99505060208a013567ffffffffffffffff811115610e2357600080fd5b610e2f8c828d01610cf4565b9850506040610e408c828d01610d1e565b97505060608a013567ffffffffffffffff811115610e5d57600080fd5b610e698c828d01610cf4565b96505060808a013567ffffffffffffffff811115610e8657600080fd5b610e928c828d01610cf4565b95505060a0610ea38c828d01610d1e565b94505060c0610eb48c828d01610d1e565b93505060e08a013567ffffffffffffffff811115610ed157600080fd5b610edd8c828d01610ca0565b925050610100610eef8c828d01610c8b565b9150509295985092959850929598565b6000610f0b8383611075565b60208301905092915050565b610f208161144a565b82525050565b6000610f31826113fa565b610f3b818561141d565b9350610f46836113ea565b8060005b83811015610f77578151610f5e8882610eff565b9750610f6983611410565b925050600181019050610f4a565b5085935050505092915050565b610f8d8161145c565b82525050565b610f9c81611468565b82525050565b6000610fad82611405565b610fb7818561142e565b9350610fc78185602086016114ab565b610fd08161159f565b840191505092915050565b6000610fe682611405565b610ff0818561143f565b93506110008185602086016114ab565b80840191505092915050565b600061101960118361142e565b9150611024826115b0565b602082019050919050565b600061103c60128361142e565b9150611047826115d9565b602082019050919050565b600061105f600e8361142e565b915061106a82611602565b602082019050919050565b61107e81611492565b82525050565b61108d81611492565b82525050565b600061109f8284610fdb565b915081905092915050565b600060208201905081810360008301526110c48184610f26565b905092915050565b6000610140820190506110e2600083018d610f93565b6110ef602083018c610f17565b6110fc604083018b610f17565b818103606083015261110e818a610fa2565b905081810360808301526111228189610fa2565b905081810360a08301526111368188610fa2565b905081810360c083015261114a8187610fa2565b905061115960e0830186611084565b611167610100830185611084565b611175610120830184610f84565b9b9a5050505050505050505050565b60006060820190506111996000830186610f93565b6111a66020830185611084565b6111b36040830184610f17565b949350505050565b600060608201905081810360008301526111d58186610fa2565b90506111e46020830185610f17565b6111f16040830184611084565b949350505050565b600060808201905081810360008301526112138187610fa2565b905081810360208301526112278186610fa2565b9050818103604083015261123b8185610fa2565b905061124a6060830184611084565b95945050505050565b6000602082019050818103600083015261126c8161100c565b9050919050565b6000602082019050818103600083015261128c8161102f565b9050919050565b600060208201905081810360008301526112ac81611052565b9050919050565b60006020820190506112c86000830184611084565b92915050565b6000610100820190506112e4600083018b611084565b6112f1602083018a610f93565b81810360408301526113038189610fa2565b905081810360608301526113178188610fa2565b90506113266080830187611084565b61133360a0830186611084565b81810360c08301526113458185610fa2565b905081810360e08301526113598184610f26565b90509998505050505050505050565b6000611372611383565b905061137e8282611510565b919050565b6000604051905090565b600067ffffffffffffffff8211156113a8576113a7611570565b5b602082029050602081019050919050565b600067ffffffffffffffff8211156113d4576113d3611570565b5b6113dd8261159f565b9050602081019050919050565b6000819050602082019050919050565b600081519050919050565b600081519050919050565b6000602082019050919050565b600082825260208201905092915050565b600082825260208201905092915050565b600081905092915050565b600061145582611472565b9050919050565b60008115159050919050565b6000819050919050565b600073ffffffffffffffffffffffffffffffffffffffff82169050919050565b6000819050919050565b82818337600083830152505050565b60005b838110156114c95780820151818401526020810190506114ae565b838111156114d8576000848401525b50505050565b600060028204905060018216806114f657607f821691505b6020821081141561150a57611509611541565b5b50919050565b6115198261159f565b810181811067ffffffffffffffff8211171561153857611537611570565b5b80604052505050565b7f4e487b7100000000000000000000000000000000000000000000000000000000600052602260045260246000fd5b7f4e487b7100000000000000000000000000000000000000000000000000000000600052604160045260246000fd5b6000601f19601f8301169050919050565b7f496e76616c69642074696d657374616d70000000000000000000000000000000600082015250565b7f496e76616c69642066726f6d456e746974790000000000000000000000000000600082015250565b7f496e76616c69642074786e206964000000000000000000000000000000000000600082015250565b6116348161144a565b811461163f57600080fd5b50565b61164b8161145c565b811461165657600080fd5b50565b61166281611468565b811461166d57600080fd5b50565b61167981611492565b811461168457600080fd5b5056fea2646970667358221220f163d838c24b1fe93b4fb7b5791e1c5b0d707f5927958328e1c2e8707bb9c9e864736f6c63430008030033",
  "immutableReferences": {},
  "source": "// SPDX-License-Identifier: GPL-3.0\r\n\r\npragma solidity >=0.5.0 <=0.8.3;\r\nimport \"./CredentialManager.sol\";\r\n\r\ncontract Inventory {\r\n\r\n    struct resourceTransaction {\r\n        bytes32 id;\r\n        address initiator;\r\n        address receiver;\r\n        string beneficiary;\r\n        string fromEntity; \r\n        string toEntity; \r\n        string entityLevel; \r\n        uint sentTimestamp; \r\n        uint receivedTimestamp;\r\n        uint[] resourceQuantities; //array of quantities where index is id of the resource\r\n        bool created;\r\n    }\r\n\r\n    mapping(bytes32=>resourceTransaction) public resourceTxns;\r\n    \r\n    event newTxn(\r\n        uint statusCode,\r\n        bytes32 txnId,\r\n        address indexed initiator,\r\n        string indexed fromEntityIndex, //stores keccak256 hash of the string. To filter, filter using hash(key)\r\n        string fromEntity,\r\n        string toEntity,\r\n        string indexed entityLevel,\r\n        uint sentTimestamp,\r\n        uint receivedTimestamp,\r\n        string beneficiary,\r\n        uint[] resources\r\n    );\r\n\r\n    event AckTxn(\r\n        bytes32 txnId,\r\n        uint receivedTimestamp,\r\n        address receiver\r\n    );\r\n    \r\n    \r\n    function sendTxn(string memory _beneficiary, string memory _fromEntity, uint _fromEntityId, string memory _toEntity, string memory _level, uint  _sentTimestamp, uint _receivedTimestamp, uint[] memory _resourceQuantities, address _credManagerAddress) public returns(uint){\r\n        \r\n        CredentialManager cm = CredentialManager(_credManagerAddress);\r\n        uint statusCode;\r\n        bytes32 txnId;\r\n        if(!cm.authorizeSigner(_level, msg.sender, _fromEntityId)){\r\n            statusCode = 401;\r\n        }else{\r\n            statusCode = 200;\r\n        }\r\n        require(bytes(_fromEntity).length>0, \"Invalid fromEntity\");\r\n        txnId = keccak256(abi.encode(_fromEntity,_toEntity,_level,_sentTimestamp));\r\n        resourceTransaction memory rtx;\r\n        rtx.id = txnId;\r\n        rtx.initiator = msg.sender;\r\n        if(keccak256(bytes(_fromEntity)) == keccak256(bytes(\"distribution\")))\r\n        rtx.beneficiary = _beneficiary;\r\n        rtx.fromEntity = _fromEntity;\r\n        rtx.toEntity = _toEntity;\r\n        rtx.entityLevel = _level;\r\n        rtx.sentTimestamp = _sentTimestamp;\r\n        if(keccak256(bytes(_fromEntity)) == keccak256(bytes(\"distribution\")))\r\n        rtx.receivedTimestamp = _receivedTimestamp;\r\n        rtx.created = true;\r\n        rtx.resourceQuantities = _resourceQuantities;\r\n        resourceTxns[txnId] = rtx;\r\n        string memory beneficiary = _beneficiary;\r\n        emit newTxn(statusCode, rtx.id, msg.sender, rtx.fromEntity, rtx.fromEntity, rtx.toEntity, rtx.entityLevel, rtx.sentTimestamp, rtx.receivedTimestamp, beneficiary, rtx.resourceQuantities);\r\n        return 0;\r\n    }\r\n    \r\n    function acknowledgeTxn(bytes32 _txnId, uint _recvdTimestamp) public {\r\n        assert(resourceTxns[_txnId].created);\r\n        require(_recvdTimestamp>0, \"Invalid timestamp\");\r\n        \r\n        resourceTransaction storage txn = resourceTxns[_txnId];\r\n        txn.receivedTimestamp = _recvdTimestamp;\r\n        txn.receiver = msg.sender;\r\n\r\n        emit AckTxn(_txnId, _recvdTimestamp, msg.sender);\r\n    }\r\n    \r\n    function getTxnResources(bytes32 _txnId) public view returns(uint[] memory) {\r\n        require(resourceTxns[_txnId].created==true, \"Invalid txn id\");\r\n        return resourceTxns[_txnId].resourceQuantities;\r\n    }\r\n}",
  "sourcePath": "D:/VIT/Capstone/identify/contracts/Inventory.sol",
  "compiler": {
    "name": "solc",
    "version": "0.8.3+commit.8d00100c.Emscripten.clang"
  },
  "schemaVersion": "3.3.4",
  "updatedAt": "2021-04-18T13:19:40.097Z",
  "networkType": "ethereum",
  "devdoc": {
    "kind": "dev",
    "methods": {},
    "version": 1
  },
  "userdoc": {
    "kind": "user",
    "methods": {},
    "version": 1
  }
}